:020000040800F2
:100000007809002025040008AD010008AF010008B0
:10001000B3010008B7010008BB01000800000000A0
:10002000000000000000000000000000BF01000808
:10003000C101000800000000C3010008C50100085C
:100040003B0400083B0400083B0400083B04000894
:100050003B0400083B0400083B0400083B04000884
:100060003B0400083B0400083B0400083B04000874
:100070003B0400083B0400083B0400083B04000864
:100080003B0400083B0400083B0400083B04000854
:100090003B0400083B0400083B0400083B04000844
:1000A0003B0400083B0400083B0400083B04000834
:1000B0003B0400083B0400083B0400083B04000824
:1000C0003B0400083B0400083B0400083B04000814
:1000D0003B0400083B0400083B0400083B04000804
:1000E0003B0400083B0400083B04000800F002F851
:1000F00000F03AF80AA090E8000C82448344AAF188
:100100000107DA4501D100F02FF8AFF2090EBAE885
:100110000F0013F0010F18BFFB1A43F0010318473B
:10012000080D0000280D0000103A24BF78C878C1DF
:10013000FAD8520724BF30C830C144BF04680C60ED
:10014000704700000023002400250026103A28BF35
:1001500078C1FBD8520728BF30C148BF0B60704739
:100160001FB51FBD10B510BD00F0FBFC1146FFF719
:10017000F7FF00F009F800F019FD03B4FFF7F2FFF4
:1001800003BC00F01DFD000000F030F90022054B1B
:10019000104600F063F804E00022034B104600F024
:1001A0005DF8F9E700408F400088C340704700BF0A
:1001B000FEE700BFFEE700BFFEE700BFFEE77047B7
:1001C000704770477047000000E0401E0028FCD1D7
:1001D000704710B5002240218F4800F022FC002219
:1001E00080218D4800F01DFC002220218A4800F06B
:1001F00018FC01222021884800F013FC4FF6FF7004
:10020000FFF7E2FF00222021834800F00AFC0022D1
:100210004021814800F005FC012240217E4800F089
:1002200000FC4FF6FF70FFF7CFFF002240217A4815
:1002300000F0F7FB00228021774800F0F2FB01225A
:100240008021754800F0EDFB4FF6FF70FFF7BCFF13
:1002500000228021704800F0E4FB10BD2DE9F05F22
:10026000834615461E462A4633466C486C4900F0C4
:10027000DDFC074600F0ACFC82460AF0FF090024D2
:100280001BE009F0010028B101221021624800F0B2
:10029000C8FB04E0002210215F4800F0C2FB0122ED
:1002A00040215D4800F0BDFB4FEA69090022402172
:1002B000594800F0B6FB601CC4B2082CE1DBCAF35D
:1002C000072900241BE009F0010028B101221021B8
:1002D000514800F0A6FB04E0002210214E4800F037
:1002E000A0FB012240214C4800F09BFB4FEA69092A
:1002F00000224021484800F094FB601CC4B2082C46
:10030000E1DBCAF3074900241BE009F0010028B132
:1003100001221021404800F084FB04E0002210215B
:100320003D4800F07EFB012240213B4800F079FB74
:100330004FEA690900224021374800F072FB601C37
:10034000C4B2082CE1DB4FEA1A6900241BE009F073
:10035000010028B1012210212F4800F062FB04E0C7
:10036000002210212C4800F05CFB012240212A4889
:1003700000F057FB4FEA690900224021264800F0AF
:1003800050FB601CC4B2082CE1DBD94600241BE002
:1003900009F0010028B1012210211F4800F041FBA3
:1003A00004E0002210211C4800F03BFB0122402108
:1003B000194800F036FB4FEA69090022402116482F
:1003C00000F02FFB601CC4B2082CE1DB012280216D
:1003D000114800F026FB4FF6FF70FFF7F5FE0022F4
:1003E00080210D4800F01DFBBDE8F09F08B50121FC
:1003F000042000F0A1F9F020ADF8000003208DF8F2
:10040000020010208DF803006946034800F058FAF6
:10041000FFF7DFFE08BD0000000801409626A5A0FA
:10042000F7C6B04008480047FEE7FEE7FEE7FEE7F4
:10043000FEE7FEE7FEE7FEE7FEE7FEE703480449C6
:10044000044A054B70470000ED00000878000020CA
:10045000780900207801002078010020DF4800683A
:1004600040F00100DD49086008464068DC4908406A
:10047000DA49486008460068DA490840D749086008
:100480000846006820F4802008600846406820F490
:10049000FE0048604FF41F0088607047CF4909682C
:1004A00021F48031CD4A11601146096821F4802180
:1004B0001160B0F5803F03D0B0F5802F0ED106E07B
:1004C000C649096841F48031C44A116007E0C34954
:1004D000096841F4A021C14A116000E000BF00BFDB
:1004E000704710B501460022002300204A11012A5E
:1004F00002D1BA4C236806E0022A02D1B74C236A23
:1005000001E0B64C636A01F01F02012494401C40D4
:100510000CB1012000E0002010BD38B50020009093
:100520000024002500BF3120FFF7DBFF05460098BF
:10053000401C00900098B0F5A06F01D0002DF2D0C3
:100540003120FFF7CEFF08B1012400E0002420464F
:1005500038BD01460020A14A106820F0F80040EAAA
:10056000C10010607047A049086070470246002033
:100570009A4B586820F47C1042EA01031843974BC9
:100580005860704798490866704701460020934AB2
:10059000506820F003000843506070478F4840685F
:1005A00000F00C007047014600208C4A506820F093
:1005B000F00008435060704701460020874A5068A9
:1005C00020F4E06008435060704701460020834AF1
:1005D000506820F4605040EAC1005060704729B173
:1005E0007E4A527A02437D4B5A7204E07B4A527A29
:1005F00082437A4B5A7270477B49D8310860704702
:1006000001460020754A506820F44040084350607D
:1006100070470021714A20321170704A82F8201010
:10062000012802D004280AD104E001216B4A2032BB
:10063000117005E00521694A2032117000E000BF09
:1006400000BF70476949086070476449096A0143FF
:10065000624A11627047654944390860704730B595
:1006600000210022002400235C4D6D6805F00C0180
:1006700021B1042905D0082923D105E05C4D05608E
:1006800022E05B4D05601FE0544D6D6805F470126B
:10069000524D6D6805F48034022505EB92421CB979
:1006A000544D554305600BE04C4D6D6805F4003525
:1006B0001DB1504D5543056002E04D4D5543056059
:1006C00002E04B4D056000BF00BF444D6D6805F072
:1006D000F0010909484D6B5C0568DD4045603F4D00
:1006E0006D6805F4E061090A434D6B5C4568DD40C7
:1006F00085603A4D6D6805F46051C90A3E4D6B5CEA
:100700004568DD40C560354D6D6805F44041890B95
:100710003A4D6B5CC568B5FBF3F5056130BD29B199
:100720002E4A526902432D4B5A6104E02B4A52690A
:1007300082432A4B5A61704729B1284A9269024381
:10074000264B9A6104E0254A92698243234B9A61C1
:10075000704729B1214AD2690243204BDA6104E093
:100760001E4AD26982431D4BDA61704729B11B4A88
:10077000D2680243194BDA6004E0184AD268824317
:10078000164BDA60704729B1144A12690243134BC1
:100790001A6104E0114A12698243104B1A617047D2
:1007A00012494039086070470F49C86470470B49C7
:1007B000C87170470948406A40F080700749486234
:1007C000704701460020054A92680A400AB101209C
:1007D00000E0002070470149887270470010024015
:1007E0000000FFF8FFFFF6FE000042428004424294
:1007F00000127A0000093D000000002010000020D7
:1008000010B50446CC48844208D101210420FFF7EA
:10081000ADFF00210420FFF7A9FF46E0C74884424E
:1008200008D101210820FFF7A1FF00210820FFF7D0
:100830009DFF3AE0C248844208D101211020FFF711
:1008400095FF00211020FFF791FF2EE0BD48844264
:1008500008D101212020FFF789FF00212020FFF788
:1008600085FF22E0B848844208D101214020FFF7EB
:100870007DFF00214020FFF779FF16E0B348844256
:1008800008D101218020FFF771FF00218020FFF7B0
:100890006DFF0AE0AE48844207D101218015FFF7C1
:1008A00065FF0021A015FFF761FF10BD10B5012104
:1008B0000846FFF75BFF00210120FFF757FF10BD3F
:1008C0002DE9F041024600250026002000230024E7
:1008D000002791F803C00CF00F0591F803C00CF04D
:1008E000100CBCF1000F03D091F802C04CEA0505D2
:1008F00091F800C0BCF1000F31D0146800202BE04B
:100900004FF0010C0CFA00F3B1F800C00CEA03063A
:100910009E4220D183004FF00F0C0CFA03F7BC432A
:1009200005FA03FC4CEA040491F803C0BCF1280F5B
:1009300006D14FF0010C0CFA00FCC2F814C00AE01A
:1009400091F803C0BCF1480F05D14FF0010C0CFA2F
:1009500000FCC2F810C0401C0828D1D31460B1F8C4
:1009600000C0BCF1FF0F34DD546800202EE000F120
:10097000080C4FF0010808FA0CF3B1F800C00CEABB
:1009800003069E4221D183004FF00F0C0CFA03F7AF
:10099000BC4305FA03FC4CEA040491F803C0BCF123
:1009A000280F05D100F1080C08FA0CF8C2F81480E1
:1009B00091F803C0BCF1480F07D100F1080C4FF0CB
:1009C000010808FA0CF8C2F81080401C0828CED3A1
:1009D0005460BDE8F0814FF6FF7101800221817003
:1009E0000421C17070470246002093680B400BB190
:1009F000012000E0002070470146886880B27047FF
:100A000002460020D3680B400BB1012000E000201B
:100A100070470146C86880B2704701617047416104
:100A200070470AB1016100E041617047C1607047E1
:100A30004FF480320A4382618161826182698269F6
:100A4000704702460020434B18684FF680731840E9
:100A500040EA021008433F4B186070473E49C861A6
:100A60007047F0B50A46002300240021002500F05D
:100A70000046B6F1004F02D1364EF16901E0354E25
:100A80007168C0F3034583B200F44016B6F5401F09
:100A900008D121F070612F4E766826F070662D4FD8
:100AA0007E6012E000F48016B6F5801F06D10326A2
:100AB00006FA05F4A14341F0706106E0460D3601E7
:100AC00003FA06F6B14341F0706122B1460D3601DA
:100AD00003FA06F6314300F00046B6F1004F02D1AA
:100AE0001C4EF16101E01B4E7160F0BD30B500227B
:100AF0008B071C0F0F2303FA04F2164B08338C10DC
:100B000053F824309343134C08348D1044F82530A7
:100B100023468C1053F824308C07240F00FA04F479
:100B200023430C4C08348D1044F8253030BD0A495D
:100B3000DC3108607047000000080140000C0140F3
:100B4000001001400014014000180140001C014049
:100B50000020014000000140000020427047704723
:100B60007047754600F028F8AE46050069465346C2
:100B700020F00700854618B020B5FFF75FFCBDE800
:100B800020404FF000064FF000074FF000084FF0F4
:100B9000000B21F00701AC46ACE8C009ACE8C00985
:100BA000ACE8C009ACE8C0098D4670470446AFF315
:100BB00000802046FFF7E1FA00487047140000204B
:100BC00001491820ABBEFEE7260002007047000076
:100BD0004FEA1153A3F58063D3F11E03A8BFD3F1ED
:100BE000200C08DB4FF0004242EAC12252EA505288
:100BF00032FA03F0704709420BD4102BC4BF002017
:100C0000704703F5787CBCF1FF3F05D04FF0FF3013
:100C100070474FF00000704770B500F0B1F800BFAA
:100C20004992248000207047F0E70000DFF848C1B7
:100C300070B51CEA111E1EBF1CEA13159EEA0C0FAC
:100C400095EA0C0F00F06F8081EA030423EA4C134D
:100C50004EEAD47E21EA4C1141F4801143F4801312
:100C6000AE44A1FB024CA0FB0365AEF17F7E3619BA
:100C700055EB0C05A1FB034C4CF10003A0FB021C3F
:100C800016EB0C06654153F10003094218BF46F00C
:100C9000010613F4007F0BD14FEA03314FEA053010
:100CA000340341EA155140EA16506FF003020AE09E
:100CB0004FEAC3214FEAC520F40241EA555140EA08
:100CC00056506FF0020202EB2E4201EB025585EA0C
:100CD000CE710AD05FEA440C18BF24F0004450F1F2
:100CE000000041F1000120EAD47040F2FE7C624530
:100CF00000D270BDA84214BF4FF080444FF0404472
:100D0000002E08BF0024BEF1806FA8BFA1F1C04132
:100D1000BDE8704080F282804FF0000001F1C041D8
:100D200001F0004170479EEA0C0F0CEA131518BF42
:100D300095EA0C0F06D04FF0000081EA030E0EF08A
:100D4000004170BD00F01CF88900013E00F007B8BA
:100D500000F009B84FEA430C5FEA5C5C08D081EA16
:100D6000030100F05BB84FEA410C5FEA5C5CF6D12E
:100D70004FF00000014970470000FF070000F87FB6
:100D80000EF1020E2EF0030E5EF8046B364205D40F
:100D9000012A43EB030515F5001F12D8012841EB8A
:100DA000010C1CF5001F0CD80ED14FEAD17C15F5B3
:100DB000001F0CEB4C0C0CF1020C08BF4CEBD37C6D
:100DC00004E04FF0080C01E04FEAD37C0CEB4C053B
:100DD00026FA05F606F00706B6F1040C06D20EEB6D
:100DE000860CBDE870404CF0010C6047DFE80CF069
:100DF000090B02024FF000414FF00000A1F5002165
:100E000070BD19461046012851EB010418BFD4F5F6
:100E1000001484BF002001F0004170BD0808A0F557
:100E200000114FEA31017047480E00080000002011
:100E300014000000280100085C0E000814000020C7
:100E400064090000440100080000000001020304DE
:0C0E50000102030406070809020406085A
:0400000508000425C6
:00000001FF
